{
	"contracts/Donation.sol": {
		"Donation": {
			"abi": [
				{
					"inputs": [],
					"stateMutability": "nonpayable",
					"type": "constructor"
				},
				{
					"inputs": [
						{
							"internalType": "address",
							"name": "caller",
							"type": "address"
						}
					],
					"name": "NotAnOwnerError",
					"type": "error"
				},
				{
					"inputs": [
						{
							"internalType": "address",
							"name": "caller",
							"type": "address"
						}
					],
					"name": "ZeroAmountError",
					"type": "error"
				},
				{
					"anonymous": false,
					"inputs": [
						{
							"indexed": true,
							"internalType": "address",
							"name": "from",
							"type": "address"
						},
						{
							"indexed": true,
							"internalType": "address",
							"name": "to",
							"type": "address"
						},
						{
							"indexed": false,
							"internalType": "uint256",
							"name": "value",
							"type": "uint256"
						}
					],
					"name": "Transfer",
					"type": "event"
				},
				{
					"inputs": [],
					"name": "donate",
					"outputs": [],
					"stateMutability": "payable",
					"type": "function"
				},
				{
					"inputs": [],
					"name": "getDonators",
					"outputs": [
						{
							"internalType": "address[]",
							"name": "",
							"type": "address[]"
						}
					],
					"stateMutability": "view",
					"type": "function"
				},
				{
					"inputs": [],
					"name": "getSumOfDonations",
					"outputs": [
						{
							"internalType": "uint256",
							"name": "",
							"type": "uint256"
						}
					],
					"stateMutability": "view",
					"type": "function"
				},
				{
					"inputs": [
						{
							"internalType": "address payable",
							"name": "to",
							"type": "address"
						},
						{
							"internalType": "uint256",
							"name": "amount",
							"type": "uint256"
						}
					],
					"name": "sendHelp",
					"outputs": [],
					"stateMutability": "payable",
					"type": "function"
				},
				{
					"stateMutability": "payable",
					"type": "receive"
				}
			],
			"devdoc": {
				"kind": "dev",
				"methods": {},
				"version": 1
			},
			"evm": {
				"assembly": "    /* \"contracts/Donation.sol\":57:1780  contract Donation {... */\n  mstore(0x40, 0x80)\n    /* \"contracts/Donation.sol\":416:499  constructor() {... */\n  callvalue\n  dup1\n  iszero\n  tag_1\n  jumpi\n  0x00\n  dup1\n  revert\ntag_1:\n  pop\n    /* \"contracts/Donation.sol\":448:458  msg.sender */\n  caller\n    /* \"contracts/Donation.sol\":440:445  owner */\n  0x02\n  0x00\n    /* \"contracts/Donation.sol\":440:458  owner = msg.sender */\n  0x0100\n  exp\n  dup2\n  sload\n  dup2\n  0xffffffffffffffffffffffffffffffffffffffff\n  mul\n  not\n  and\n  swap1\n  dup4\n  0xffffffffffffffffffffffffffffffffffffffff\n  and\n  mul\n  or\n  swap1\n  sstore\n  pop\n    /* \"contracts/Donation.sol\":491:492  0 */\n  0x00\n    /* \"contracts/Donation.sol\":468:488  totalDonationsAmount */\n  dup1\n    /* \"contracts/Donation.sol\":468:492  totalDonationsAmount = 0 */\n  dup2\n  swap1\n  sstore\n  pop\n    /* \"contracts/Donation.sol\":57:1780  contract Donation {... */\n  dataSize(sub_0)\n  dup1\n  dataOffset(sub_0)\n  0x00\n  codecopy\n  0x00\n  return\nstop\n\nsub_0: assembly {\n        /* \"contracts/Donation.sol\":57:1780  contract Donation {... */\n      mstore(0x40, 0x80)\n      jumpi(tag_1, lt(calldatasize, 0x04))\n      shr(0xe0, calldataload(0x00))\n      dup1\n      0x6f965a63\n      eq\n      tag_3\n      jumpi\n      dup1\n      0xbf1482fa\n      eq\n      tag_4\n      jumpi\n      dup1\n      0xed88c68e\n      eq\n      tag_5\n      jumpi\n      dup1\n      0xf3a01489\n      eq\n      tag_6\n      jumpi\n      jump(tag_2)\n    tag_1:\n      jumpi(tag_2, calldatasize)\n        /* \"contracts/Donation.sol\":1756:1757  0 */\n      0x00\n        /* \"contracts/Donation.sol\":1727:1770  Transfer(msg.sender, address(0), msg.value) */\n      0xffffffffffffffffffffffffffffffffffffffff\n      and\n        /* \"contracts/Donation.sol\":1736:1746  msg.sender */\n      caller\n        /* \"contracts/Donation.sol\":1727:1770  Transfer(msg.sender, address(0), msg.value) */\n      0xffffffffffffffffffffffffffffffffffffffff\n      and\n      0xddf252ad1be2c89b69c2b068fc378daa952ba7f163c4a11628f55a4df523b3ef\n        /* \"contracts/Donation.sol\":1760:1769  msg.value */\n      callvalue\n        /* \"contracts/Donation.sol\":1727:1770  Transfer(msg.sender, address(0), msg.value) */\n      mload(0x40)\n      tag_9\n      swap2\n      swap1\n      tag_10\n      jump\t// in\n    tag_9:\n      mload(0x40)\n      dup1\n      swap2\n      sub\n      swap1\n      log3\n        /* \"contracts/Donation.sol\":57:1780  contract Donation {... */\n      stop\n    tag_2:\n      0x00\n      dup1\n      revert\n        /* \"contracts/Donation.sol\":856:1459  function sendHelp(address payable to, uint256 amount) external payable  {... */\n    tag_3:\n      tag_11\n      0x04\n      dup1\n      calldatasize\n      sub\n      dup2\n      add\n      swap1\n      tag_12\n      swap2\n      swap1\n      tag_13\n      jump\t// in\n    tag_12:\n      tag_14\n      jump\t// in\n    tag_11:\n      stop\n        /* \"contracts/Donation.sol\":1469:1571  function getDonators() external view returns(address[] memory){... */\n    tag_4:\n      callvalue\n      dup1\n      iszero\n      tag_15\n      jumpi\n      0x00\n      dup1\n      revert\n    tag_15:\n      pop\n      tag_16\n      tag_17\n      jump\t// in\n    tag_16:\n      mload(0x40)\n      tag_18\n      swap2\n      swap1\n      tag_19\n      jump\t// in\n    tag_18:\n      mload(0x40)\n      dup1\n      swap2\n      sub\n      swap1\n      return\n        /* \"contracts/Donation.sol\":505:850  function donate() external payable {... */\n    tag_5:\n      tag_20\n      tag_21\n      jump\t// in\n    tag_20:\n      stop\n        /* \"contracts/Donation.sol\":1576:1679  function getSumOfDonations() external view returns(uint256){... */\n    tag_6:\n      callvalue\n      dup1\n      iszero\n      tag_22\n      jumpi\n      0x00\n      dup1\n      revert\n    tag_22:\n      pop\n      tag_23\n      tag_24\n      jump\t// in\n    tag_23:\n      mload(0x40)\n      tag_25\n      swap2\n      swap1\n      tag_10\n      jump\t// in\n    tag_25:\n      mload(0x40)\n      dup1\n      swap2\n      sub\n      swap1\n      return\n        /* \"contracts/Donation.sol\":856:1459  function sendHelp(address payable to, uint256 amount) external payable  {... */\n    tag_14:\n        /* \"contracts/Donation.sol\":956:961  owner */\n      0x02\n      0x00\n      swap1\n      sload\n      swap1\n      0x0100\n      exp\n      swap1\n      div\n      0xffffffffffffffffffffffffffffffffffffffff\n      and\n        /* \"contracts/Donation.sol\":942:961  msg.sender != owner */\n      0xffffffffffffffffffffffffffffffffffffffff\n      and\n        /* \"contracts/Donation.sol\":942:952  msg.sender */\n      caller\n        /* \"contracts/Donation.sol\":942:961  msg.sender != owner */\n      0xffffffffffffffffffffffffffffffffffffffff\n      and\n      eq\n        /* \"contracts/Donation.sol\":938:1022  if (msg.sender != owner) {... */\n      tag_27\n      jumpi\n        /* \"contracts/Donation.sol\":1000:1010  msg.sender */\n      caller\n        /* \"contracts/Donation.sol\":984:1011  NotAnOwnerError(msg.sender) */\n      mload(0x40)\n      0xf499598a00000000000000000000000000000000000000000000000000000000\n      dup2\n      mstore\n      0x04\n      add\n      tag_28\n      swap2\n      swap1\n      tag_29\n      jump\t// in\n    tag_28:\n      mload(0x40)\n      dup1\n      swap2\n      sub\n      swap1\n      revert\n        /* \"contracts/Donation.sol\":938:1022  if (msg.sender != owner) {... */\n    tag_27:\n        /* \"contracts/Donation.sol\":1045:1046  0 */\n      0x00\n        /* \"contracts/Donation.sol\":1035:1041  amount */\n      dup2\n        /* \"contracts/Donation.sol\":1035:1046  amount <= 0 */\n      gt\n        /* \"contracts/Donation.sol\":1031:1107  if (amount <= 0 ){... */\n      tag_30\n      jumpi\n        /* \"contracts/Donation.sol\":1085:1095  msg.sender */\n      caller\n        /* \"contracts/Donation.sol\":1069:1096  ZeroAmountError(msg.sender) */\n      mload(0x40)\n      0x30e8fb4300000000000000000000000000000000000000000000000000000000\n      dup2\n      mstore\n      0x04\n      add\n      tag_31\n      swap2\n      swap1\n      tag_29\n      jump\t// in\n    tag_31:\n      mload(0x40)\n      dup1\n      swap2\n      sub\n      swap1\n      revert\n        /* \"contracts/Donation.sol\":1031:1107  if (amount <= 0 ){... */\n    tag_30:\n        /* \"contracts/Donation.sol\":1129:1149  totalDonationsAmount */\n      sload(0x00)\n        /* \"contracts/Donation.sol\":1120:1126  amount */\n      dup2\n        /* \"contracts/Donation.sol\":1120:1149  amount > totalDonationsAmount */\n      gt\n        /* \"contracts/Donation.sol\":1116:1210  if (amount > totalDonationsAmount ){... */\n      iszero\n      tag_32\n      jumpi\n        /* \"contracts/Donation.sol\":1188:1198  msg.sender */\n      caller\n        /* \"contracts/Donation.sol\":1172:1199  ZeroAmountError(msg.sender) */\n      mload(0x40)\n      0x30e8fb4300000000000000000000000000000000000000000000000000000000\n      dup2\n      mstore\n      0x04\n      add\n      tag_33\n      swap2\n      swap1\n      tag_29\n      jump\t// in\n    tag_33:\n      mload(0x40)\n      dup1\n      swap2\n      sub\n      swap1\n      revert\n        /* \"contracts/Donation.sol\":1116:1210  if (amount > totalDonationsAmount ){... */\n    tag_32:\n        /* \"contracts/Donation.sol\":1219:1228  bool sent */\n      0x00\n        /* \"contracts/Donation.sol\":1231:1233  to */\n      dup3\n        /* \"contracts/Donation.sol\":1231:1238  to.send */\n      0xffffffffffffffffffffffffffffffffffffffff\n      and\n        /* \"contracts/Donation.sol\":1231:1246  to.send(amount) */\n      0x08fc\n        /* \"contracts/Donation.sol\":1239:1245  amount */\n      dup4\n        /* \"contracts/Donation.sol\":1231:1246  to.send(amount) */\n      swap1\n      dup2\n      iszero\n      mul\n      swap1\n      mload(0x40)\n      0x00\n      mload(0x40)\n      dup1\n      dup4\n      sub\n      dup2\n      dup6\n      dup9\n      dup9\n      call\n      swap4\n      pop\n      pop\n      pop\n      pop\n        /* \"contracts/Donation.sol\":1219:1246  bool sent = to.send(amount) */\n      swap1\n      pop\n        /* \"contracts/Donation.sol\":1269:1273  sent */\n      dup1\n        /* \"contracts/Donation.sol\":1266:1444  if(sent){... */\n      iszero\n      tag_35\n      jumpi\n        /* \"contracts/Donation.sol\":1314:1316  to */\n      dup3\n        /* \"contracts/Donation.sol\":1293:1325  Transfer(msg.sender, to, amount) */\n      0xffffffffffffffffffffffffffffffffffffffff\n      and\n        /* \"contracts/Donation.sol\":1302:1312  msg.sender */\n      caller\n        /* \"contracts/Donation.sol\":1293:1325  Transfer(msg.sender, to, amount) */\n      0xffffffffffffffffffffffffffffffffffffffff\n      and\n      0xddf252ad1be2c89b69c2b068fc378daa952ba7f163c4a11628f55a4df523b3ef\n        /* \"contracts/Donation.sol\":1318:1324  amount */\n      dup5\n        /* \"contracts/Donation.sol\":1293:1325  Transfer(msg.sender, to, amount) */\n      mload(0x40)\n      tag_36\n      swap2\n      swap1\n      tag_10\n      jump\t// in\n    tag_36:\n      mload(0x40)\n      dup1\n      swap2\n      sub\n      swap1\n      log3\n        /* \"contracts/Donation.sol\":1363:1369  amount */\n      dup2\n        /* \"contracts/Donation.sol\":1339:1359  totalDonationsAmount */\n      0x00\n      dup1\n        /* \"contracts/Donation.sol\":1339:1369  totalDonationsAmount -= amount */\n      dup3\n      dup3\n      sload\n      tag_37\n      swap2\n      swap1\n      tag_38\n      jump\t// in\n    tag_37:\n      swap3\n      pop\n      pop\n      dup2\n      swap1\n      sstore\n      pop\n        /* \"contracts/Donation.sol\":1266:1444  if(sent){... */\n      jump(tag_39)\n    tag_35:\n        /* \"contracts/Donation.sol\":1422:1432  msg.sender */\n      caller\n        /* \"contracts/Donation.sol\":1406:1433  ZeroAmountError(msg.sender) */\n      mload(0x40)\n      0x30e8fb4300000000000000000000000000000000000000000000000000000000\n      dup2\n      mstore\n      0x04\n      add\n      tag_40\n      swap2\n      swap1\n      tag_29\n      jump\t// in\n    tag_40:\n      mload(0x40)\n      dup1\n      swap2\n      sub\n      swap1\n      revert\n        /* \"contracts/Donation.sol\":1266:1444  if(sent){... */\n    tag_39:\n        /* \"contracts/Donation.sol\":928:1459  {... */\n      pop\n        /* \"contracts/Donation.sol\":856:1459  function sendHelp(address payable to, uint256 amount) external payable  {... */\n      pop\n      pop\n      jump\t// out\n        /* \"contracts/Donation.sol\":1469:1571  function getDonators() external view returns(address[] memory){... */\n    tag_17:\n        /* \"contracts/Donation.sol\":1514:1530  address[] memory */\n      0x60\n        /* \"contracts/Donation.sol\":1548:1564  charityAddresses */\n      0x03\n        /* \"contracts/Donation.sol\":1541:1564  return charityAddresses */\n      dup1\n      sload\n      dup1\n      0x20\n      mul\n      0x20\n      add\n      mload(0x40)\n      swap1\n      dup2\n      add\n      0x40\n      mstore\n      dup1\n      swap3\n      swap2\n      swap1\n      dup2\n      dup2\n      mstore\n      0x20\n      add\n      dup3\n      dup1\n      sload\n      dup1\n      iszero\n      tag_42\n      jumpi\n      0x20\n      mul\n      dup3\n      add\n      swap2\n      swap1\n      0x00\n      mstore\n      keccak256(0x00, 0x20)\n      swap1\n    tag_43:\n      dup2\n      0x00\n      swap1\n      sload\n      swap1\n      0x0100\n      exp\n      swap1\n      div\n      0xffffffffffffffffffffffffffffffffffffffff\n      and\n      0xffffffffffffffffffffffffffffffffffffffff\n      and\n      dup2\n      mstore\n      0x20\n      add\n      swap1\n      0x01\n      add\n      swap1\n      dup1\n      dup4\n      gt\n      tag_43\n      jumpi\n    tag_42:\n      pop\n      pop\n      pop\n      pop\n      pop\n      swap1\n      pop\n        /* \"contracts/Donation.sol\":1469:1571  function getDonators() external view returns(address[] memory){... */\n      swap1\n      jump\t// out\n        /* \"contracts/Donation.sol\":505:850  function donate() external payable {... */\n    tag_21:\n        /* \"contracts/Donation.sol\":550:563  uint256 funds */\n      0x00\n        /* \"contracts/Donation.sol\":566:575  msg.value */\n      callvalue\n        /* \"contracts/Donation.sol\":550:575  uint256 funds = msg.value */\n      swap1\n      pop\n        /* \"contracts/Donation.sol\":597:598  0 */\n      0x00\n        /* \"contracts/Donation.sol\":588:593  funds */\n      dup2\n        /* \"contracts/Donation.sol\":588:598  funds <= 0 */\n      gt\n        /* \"contracts/Donation.sol\":585:660  if(funds <= 0) { ... */\n      tag_45\n      jumpi\n        /* \"contracts/Donation.sol\":638:648  msg.sender */\n      caller\n        /* \"contracts/Donation.sol\":622:649  ZeroAmountError(msg.sender) */\n      mload(0x40)\n      0x30e8fb4300000000000000000000000000000000000000000000000000000000\n      dup2\n      mstore\n      0x04\n      add\n      tag_46\n      swap2\n      swap1\n      tag_29\n      jump\t// in\n    tag_46:\n      mload(0x40)\n      dup1\n      swap2\n      sub\n      swap1\n      revert\n        /* \"contracts/Donation.sol\":585:660  if(funds <= 0) { ... */\n    tag_45:\n        /* \"contracts/Donation.sol\":670:686  charityAddresses */\n      0x03\n        /* \"contracts/Donation.sol\":692:702  msg.sender */\n      caller\n        /* \"contracts/Donation.sol\":670:703  charityAddresses.push(msg.sender) */\n      swap1\n      dup1\n      0x01\n      dup2\n      sload\n      add\n      dup1\n      dup3\n      sstore\n      dup1\n      swap2\n      pop\n      pop\n      0x01\n      swap1\n      sub\n      swap1\n      0x00\n      mstore\n      keccak256(0x00, 0x20)\n      add\n      0x00\n      swap1\n      swap2\n      swap1\n      swap2\n      swap1\n      swap2\n      0x0100\n      exp\n      dup2\n      sload\n      dup2\n      0xffffffffffffffffffffffffffffffffffffffff\n      mul\n      not\n      and\n      swap1\n      dup4\n      0xffffffffffffffffffffffffffffffffffffffff\n      and\n      mul\n      or\n      swap1\n      sstore\n      pop\n        /* \"contracts/Donation.sol\":739:744  funds */\n      dup1\n        /* \"contracts/Donation.sol\":713:723  _donations */\n      0x04\n        /* \"contracts/Donation.sol\":713:735  _donations[msg.sender] */\n      0x00\n        /* \"contracts/Donation.sol\":724:734  msg.sender */\n      caller\n        /* \"contracts/Donation.sol\":713:735  _donations[msg.sender] */\n      0xffffffffffffffffffffffffffffffffffffffff\n      and\n      0xffffffffffffffffffffffffffffffffffffffff\n      and\n      dup2\n      mstore\n      0x20\n      add\n      swap1\n      dup2\n      mstore\n      0x20\n      add\n      0x00\n      keccak256\n      0x00\n        /* \"contracts/Donation.sol\":713:744  _donations[msg.sender] += funds */\n      dup3\n      dup3\n      sload\n      tag_48\n      swap2\n      swap1\n      tag_49\n      jump\t// in\n    tag_48:\n      swap3\n      pop\n      pop\n      dup2\n      swap1\n      sstore\n      pop\n        /* \"contracts/Donation.sol\":778:783  funds */\n      dup1\n        /* \"contracts/Donation.sol\":754:774  totalDonationsAmount */\n      0x00\n      dup1\n        /* \"contracts/Donation.sol\":754:783  totalDonationsAmount += funds */\n      dup3\n      dup3\n      sload\n      tag_50\n      swap2\n      swap1\n      tag_49\n      jump\t// in\n    tag_50:\n      swap3\n      pop\n      pop\n      dup2\n      swap1\n      sstore\n      pop\n        /* \"contracts/Donation.sol\":826:827  0 */\n      0x00\n        /* \"contracts/Donation.sol\":798:835  Transfer(msg.sender,address(0),funds) */\n      0xffffffffffffffffffffffffffffffffffffffff\n      and\n        /* \"contracts/Donation.sol\":807:817  msg.sender */\n      caller\n        /* \"contracts/Donation.sol\":798:835  Transfer(msg.sender,address(0),funds) */\n      0xffffffffffffffffffffffffffffffffffffffff\n      and\n      0xddf252ad1be2c89b69c2b068fc378daa952ba7f163c4a11628f55a4df523b3ef\n        /* \"contracts/Donation.sol\":829:834  funds */\n      dup4\n        /* \"contracts/Donation.sol\":798:835  Transfer(msg.sender,address(0),funds) */\n      mload(0x40)\n      tag_51\n      swap2\n      swap1\n      tag_10\n      jump\t// in\n    tag_51:\n      mload(0x40)\n      dup1\n      swap2\n      sub\n      swap1\n      log3\n        /* \"contracts/Donation.sol\":540:850  {... */\n      pop\n        /* \"contracts/Donation.sol\":505:850  function donate() external payable {... */\n      jump\t// out\n        /* \"contracts/Donation.sol\":1576:1679  function getSumOfDonations() external view returns(uint256){... */\n    tag_24:\n        /* \"contracts/Donation.sol\":1627:1634  uint256 */\n      0x00\n        /* \"contracts/Donation.sol\":1652:1672  totalDonationsAmount */\n      dup1\n      sload\n        /* \"contracts/Donation.sol\":1645:1672  return totalDonationsAmount */\n      swap1\n      pop\n        /* \"contracts/Donation.sol\":1576:1679  function getSumOfDonations() external view returns(uint256){... */\n      swap1\n      jump\t// out\n        /* \"#utility.yul\":7:84   */\n    tag_53:\n        /* \"#utility.yul\":44:51   */\n      0x00\n        /* \"#utility.yul\":73:78   */\n      dup2\n        /* \"#utility.yul\":62:78   */\n      swap1\n      pop\n        /* \"#utility.yul\":7:84   */\n      swap2\n      swap1\n      pop\n      jump\t// out\n        /* \"#utility.yul\":90:208   */\n    tag_54:\n        /* \"#utility.yul\":177:201   */\n      tag_77\n        /* \"#utility.yul\":195:200   */\n      dup2\n        /* \"#utility.yul\":177:201   */\n      tag_53\n      jump\t// in\n    tag_77:\n        /* \"#utility.yul\":172:175   */\n      dup3\n        /* \"#utility.yul\":165:202   */\n      mstore\n        /* \"#utility.yul\":90:208   */\n      pop\n      pop\n      jump\t// out\n        /* \"#utility.yul\":214:436   */\n    tag_10:\n        /* \"#utility.yul\":307:311   */\n      0x00\n        /* \"#utility.yul\":345:347   */\n      0x20\n        /* \"#utility.yul\":334:343   */\n      dup3\n        /* \"#utility.yul\":330:348   */\n      add\n        /* \"#utility.yul\":322:348   */\n      swap1\n      pop\n        /* \"#utility.yul\":358:429   */\n      tag_79\n        /* \"#utility.yul\":426:427   */\n      0x00\n        /* \"#utility.yul\":415:424   */\n      dup4\n        /* \"#utility.yul\":411:428   */\n      add\n        /* \"#utility.yul\":402:408   */\n      dup5\n        /* \"#utility.yul\":358:429   */\n      tag_54\n      jump\t// in\n    tag_79:\n        /* \"#utility.yul\":214:436   */\n      swap3\n      swap2\n      pop\n      pop\n      jump\t// out\n        /* \"#utility.yul\":523:640   */\n    tag_56:\n        /* \"#utility.yul\":632:633   */\n      0x00\n        /* \"#utility.yul\":629:630   */\n      dup1\n        /* \"#utility.yul\":622:634   */\n      revert\n        /* \"#utility.yul\":769:895   */\n    tag_58:\n        /* \"#utility.yul\":806:813   */\n      0x00\n        /* \"#utility.yul\":846:888   */\n      0xffffffffffffffffffffffffffffffffffffffff\n        /* \"#utility.yul\":839:844   */\n      dup3\n        /* \"#utility.yul\":835:889   */\n      and\n        /* \"#utility.yul\":824:889   */\n      swap1\n      pop\n        /* \"#utility.yul\":769:895   */\n      swap2\n      swap1\n      pop\n      jump\t// out\n        /* \"#utility.yul\":901:1005   */\n    tag_59:\n        /* \"#utility.yul\":946:953   */\n      0x00\n        /* \"#utility.yul\":975:999   */\n      tag_85\n        /* \"#utility.yul\":993:998   */\n      dup3\n        /* \"#utility.yul\":975:999   */\n      tag_58\n      jump\t// in\n    tag_85:\n        /* \"#utility.yul\":964:999   */\n      swap1\n      pop\n        /* \"#utility.yul\":901:1005   */\n      swap2\n      swap1\n      pop\n      jump\t// out\n        /* \"#utility.yul\":1011:1149   */\n    tag_60:\n        /* \"#utility.yul\":1092:1124   */\n      tag_87\n        /* \"#utility.yul\":1118:1123   */\n      dup2\n        /* \"#utility.yul\":1092:1124   */\n      tag_59\n      jump\t// in\n    tag_87:\n        /* \"#utility.yul\":1085:1090   */\n      dup2\n        /* \"#utility.yul\":1082:1125   */\n      eq\n        /* \"#utility.yul\":1072:1143   */\n      tag_88\n      jumpi\n        /* \"#utility.yul\":1139:1140   */\n      0x00\n        /* \"#utility.yul\":1136:1137   */\n      dup1\n        /* \"#utility.yul\":1129:1141   */\n      revert\n        /* \"#utility.yul\":1072:1143   */\n    tag_88:\n        /* \"#utility.yul\":1011:1149   */\n      pop\n      jump\t// out\n        /* \"#utility.yul\":1155:1310   */\n    tag_61:\n        /* \"#utility.yul\":1209:1214   */\n      0x00\n        /* \"#utility.yul\":1247:1253   */\n      dup2\n        /* \"#utility.yul\":1234:1254   */\n      calldataload\n        /* \"#utility.yul\":1225:1254   */\n      swap1\n      pop\n        /* \"#utility.yul\":1263:1304   */\n      tag_90\n        /* \"#utility.yul\":1298:1303   */\n      dup2\n        /* \"#utility.yul\":1263:1304   */\n      tag_60\n      jump\t// in\n    tag_90:\n        /* \"#utility.yul\":1155:1310   */\n      swap3\n      swap2\n      pop\n      pop\n      jump\t// out\n        /* \"#utility.yul\":1316:1438   */\n    tag_62:\n        /* \"#utility.yul\":1389:1413   */\n      tag_92\n        /* \"#utility.yul\":1407:1412   */\n      dup2\n        /* \"#utility.yul\":1389:1413   */\n      tag_53\n      jump\t// in\n    tag_92:\n        /* \"#utility.yul\":1382:1387   */\n      dup2\n        /* \"#utility.yul\":1379:1414   */\n      eq\n        /* \"#utility.yul\":1369:1432   */\n      tag_93\n      jumpi\n        /* \"#utility.yul\":1428:1429   */\n      0x00\n        /* \"#utility.yul\":1425:1426   */\n      dup1\n        /* \"#utility.yul\":1418:1430   */\n      revert\n        /* \"#utility.yul\":1369:1432   */\n    tag_93:\n        /* \"#utility.yul\":1316:1438   */\n      pop\n      jump\t// out\n        /* \"#utility.yul\":1444:1583   */\n    tag_63:\n        /* \"#utility.yul\":1490:1495   */\n      0x00\n        /* \"#utility.yul\":1528:1534   */\n      dup2\n        /* \"#utility.yul\":1515:1535   */\n      calldataload\n        /* \"#utility.yul\":1506:1535   */\n      swap1\n      pop\n        /* \"#utility.yul\":1544:1577   */\n      tag_95\n        /* \"#utility.yul\":1571:1576   */\n      dup2\n        /* \"#utility.yul\":1544:1577   */\n      tag_62\n      jump\t// in\n    tag_95:\n        /* \"#utility.yul\":1444:1583   */\n      swap3\n      swap2\n      pop\n      pop\n      jump\t// out\n        /* \"#utility.yul\":1589:2079   */\n    tag_13:\n        /* \"#utility.yul\":1665:1671   */\n      0x00\n        /* \"#utility.yul\":1673:1679   */\n      dup1\n        /* \"#utility.yul\":1722:1724   */\n      0x40\n        /* \"#utility.yul\":1710:1719   */\n      dup4\n        /* \"#utility.yul\":1701:1708   */\n      dup6\n        /* \"#utility.yul\":1697:1720   */\n      sub\n        /* \"#utility.yul\":1693:1725   */\n      slt\n        /* \"#utility.yul\":1690:1809   */\n      iszero\n      tag_97\n      jumpi\n        /* \"#utility.yul\":1728:1807   */\n      tag_98\n      tag_56\n      jump\t// in\n    tag_98:\n        /* \"#utility.yul\":1690:1809   */\n    tag_97:\n        /* \"#utility.yul\":1848:1849   */\n      0x00\n        /* \"#utility.yul\":1873:1934   */\n      tag_99\n        /* \"#utility.yul\":1926:1933   */\n      dup6\n        /* \"#utility.yul\":1917:1923   */\n      dup3\n        /* \"#utility.yul\":1906:1915   */\n      dup7\n        /* \"#utility.yul\":1902:1924   */\n      add\n        /* \"#utility.yul\":1873:1934   */\n      tag_61\n      jump\t// in\n    tag_99:\n        /* \"#utility.yul\":1863:1934   */\n      swap3\n      pop\n        /* \"#utility.yul\":1819:1944   */\n      pop\n        /* \"#utility.yul\":1983:1985   */\n      0x20\n        /* \"#utility.yul\":2009:2062   */\n      tag_100\n        /* \"#utility.yul\":2054:2061   */\n      dup6\n        /* \"#utility.yul\":2045:2051   */\n      dup3\n        /* \"#utility.yul\":2034:2043   */\n      dup7\n        /* \"#utility.yul\":2030:2052   */\n      add\n        /* \"#utility.yul\":2009:2062   */\n      tag_63\n      jump\t// in\n    tag_100:\n        /* \"#utility.yul\":1999:2062   */\n      swap2\n      pop\n        /* \"#utility.yul\":1954:2072   */\n      pop\n        /* \"#utility.yul\":1589:2079   */\n      swap3\n      pop\n      swap3\n      swap1\n      pop\n      jump\t// out\n        /* \"#utility.yul\":2085:2199   */\n    tag_64:\n        /* \"#utility.yul\":2152:2158   */\n      0x00\n        /* \"#utility.yul\":2186:2191   */\n      dup2\n        /* \"#utility.yul\":2180:2192   */\n      mload\n        /* \"#utility.yul\":2170:2192   */\n      swap1\n      pop\n        /* \"#utility.yul\":2085:2199   */\n      swap2\n      swap1\n      pop\n      jump\t// out\n        /* \"#utility.yul\":2205:2389   */\n    tag_65:\n        /* \"#utility.yul\":2304:2315   */\n      0x00\n        /* \"#utility.yul\":2338:2344   */\n      dup3\n        /* \"#utility.yul\":2333:2336   */\n      dup3\n        /* \"#utility.yul\":2326:2345   */\n      mstore\n        /* \"#utility.yul\":2378:2382   */\n      0x20\n        /* \"#utility.yul\":2373:2376   */\n      dup3\n        /* \"#utility.yul\":2369:2383   */\n      add\n        /* \"#utility.yul\":2354:2383   */\n      swap1\n      pop\n        /* \"#utility.yul\":2205:2389   */\n      swap3\n      swap2\n      pop\n      pop\n      jump\t// out\n        /* \"#utility.yul\":2395:2527   */\n    tag_66:\n        /* \"#utility.yul\":2462:2466   */\n      0x00\n        /* \"#utility.yul\":2485:2488   */\n      dup2\n        /* \"#utility.yul\":2477:2488   */\n      swap1\n      pop\n        /* \"#utility.yul\":2515:2519   */\n      0x20\n        /* \"#utility.yul\":2510:2513   */\n      dup3\n        /* \"#utility.yul\":2506:2520   */\n      add\n        /* \"#utility.yul\":2498:2520   */\n      swap1\n      pop\n        /* \"#utility.yul\":2395:2527   */\n      swap2\n      swap1\n      pop\n      jump\t// out\n        /* \"#utility.yul\":2533:2629   */\n    tag_67:\n        /* \"#utility.yul\":2570:2577   */\n      0x00\n        /* \"#utility.yul\":2599:2623   */\n      tag_105\n        /* \"#utility.yul\":2617:2622   */\n      dup3\n        /* \"#utility.yul\":2599:2623   */\n      tag_58\n      jump\t// in\n    tag_105:\n        /* \"#utility.yul\":2588:2623   */\n      swap1\n      pop\n        /* \"#utility.yul\":2533:2629   */\n      swap2\n      swap1\n      pop\n      jump\t// out\n        /* \"#utility.yul\":2635:2743   */\n    tag_68:\n        /* \"#utility.yul\":2712:2736   */\n      tag_107\n        /* \"#utility.yul\":2730:2735   */\n      dup2\n        /* \"#utility.yul\":2712:2736   */\n      tag_67\n      jump\t// in\n    tag_107:\n        /* \"#utility.yul\":2707:2710   */\n      dup3\n        /* \"#utility.yul\":2700:2737   */\n      mstore\n        /* \"#utility.yul\":2635:2743   */\n      pop\n      pop\n      jump\t// out\n        /* \"#utility.yul\":2749:2928   */\n    tag_69:\n        /* \"#utility.yul\":2818:2828   */\n      0x00\n        /* \"#utility.yul\":2839:2885   */\n      tag_109\n        /* \"#utility.yul\":2881:2884   */\n      dup4\n        /* \"#utility.yul\":2873:2879   */\n      dup4\n        /* \"#utility.yul\":2839:2885   */\n      tag_68\n      jump\t// in\n    tag_109:\n        /* \"#utility.yul\":2917:2921   */\n      0x20\n        /* \"#utility.yul\":2912:2915   */\n      dup4\n        /* \"#utility.yul\":2908:2922   */\n      add\n        /* \"#utility.yul\":2894:2922   */\n      swap1\n      pop\n        /* \"#utility.yul\":2749:2928   */\n      swap3\n      swap2\n      pop\n      pop\n      jump\t// out\n        /* \"#utility.yul\":2934:3047   */\n    tag_70:\n        /* \"#utility.yul\":3004:3008   */\n      0x00\n        /* \"#utility.yul\":3036:3040   */\n      0x20\n        /* \"#utility.yul\":3031:3034   */\n      dup3\n        /* \"#utility.yul\":3027:3041   */\n      add\n        /* \"#utility.yul\":3019:3041   */\n      swap1\n      pop\n        /* \"#utility.yul\":2934:3047   */\n      swap2\n      swap1\n      pop\n      jump\t// out\n        /* \"#utility.yul\":3083:3815   */\n    tag_71:\n        /* \"#utility.yul\":3202:3205   */\n      0x00\n        /* \"#utility.yul\":3231:3285   */\n      tag_112\n        /* \"#utility.yul\":3279:3284   */\n      dup3\n        /* \"#utility.yul\":3231:3285   */\n      tag_64\n      jump\t// in\n    tag_112:\n        /* \"#utility.yul\":3301:3387   */\n      tag_113\n        /* \"#utility.yul\":3380:3386   */\n      dup2\n        /* \"#utility.yul\":3375:3378   */\n      dup6\n        /* \"#utility.yul\":3301:3387   */\n      tag_65\n      jump\t// in\n    tag_113:\n        /* \"#utility.yul\":3294:3387   */\n      swap4\n      pop\n        /* \"#utility.yul\":3411:3467   */\n      tag_114\n        /* \"#utility.yul\":3461:3466   */\n      dup4\n        /* \"#utility.yul\":3411:3467   */\n      tag_66\n      jump\t// in\n    tag_114:\n        /* \"#utility.yul\":3490:3497   */\n      dup1\n        /* \"#utility.yul\":3521:3522   */\n      0x00\n        /* \"#utility.yul\":3506:3790   */\n    tag_115:\n        /* \"#utility.yul\":3531:3537   */\n      dup4\n        /* \"#utility.yul\":3528:3529   */\n      dup2\n        /* \"#utility.yul\":3525:3538   */\n      lt\n        /* \"#utility.yul\":3506:3790   */\n      iszero\n      tag_117\n      jumpi\n        /* \"#utility.yul\":3607:3613   */\n      dup2\n        /* \"#utility.yul\":3601:3614   */\n      mload\n        /* \"#utility.yul\":3634:3697   */\n      tag_118\n        /* \"#utility.yul\":3693:3696   */\n      dup9\n        /* \"#utility.yul\":3678:3691   */\n      dup3\n        /* \"#utility.yul\":3634:3697   */\n      tag_69\n      jump\t// in\n    tag_118:\n        /* \"#utility.yul\":3627:3697   */\n      swap8\n      pop\n        /* \"#utility.yul\":3720:3780   */\n      tag_119\n        /* \"#utility.yul\":3773:3779   */\n      dup4\n        /* \"#utility.yul\":3720:3780   */\n      tag_70\n      jump\t// in\n    tag_119:\n        /* \"#utility.yul\":3710:3780   */\n      swap3\n      pop\n        /* \"#utility.yul\":3566:3790   */\n      pop\n        /* \"#utility.yul\":3553:3554   */\n      0x01\n        /* \"#utility.yul\":3550:3551   */\n      dup2\n        /* \"#utility.yul\":3546:3555   */\n      add\n        /* \"#utility.yul\":3541:3555   */\n      swap1\n      pop\n        /* \"#utility.yul\":3506:3790   */\n      jump(tag_115)\n    tag_117:\n        /* \"#utility.yul\":3510:3524   */\n      pop\n        /* \"#utility.yul\":3806:3809   */\n      dup6\n        /* \"#utility.yul\":3799:3809   */\n      swap4\n      pop\n        /* \"#utility.yul\":3207:3815   */\n      pop\n      pop\n      pop\n        /* \"#utility.yul\":3083:3815   */\n      swap3\n      swap2\n      pop\n      pop\n      jump\t// out\n        /* \"#utility.yul\":3821:4194   */\n    tag_19:\n        /* \"#utility.yul\":3964:3968   */\n      0x00\n        /* \"#utility.yul\":4002:4004   */\n      0x20\n        /* \"#utility.yul\":3991:4000   */\n      dup3\n        /* \"#utility.yul\":3987:4005   */\n      add\n        /* \"#utility.yul\":3979:4005   */\n      swap1\n      pop\n        /* \"#utility.yul\":4051:4060   */\n      dup2\n        /* \"#utility.yul\":4045:4049   */\n      dup2\n        /* \"#utility.yul\":4041:4061   */\n      sub\n        /* \"#utility.yul\":4037:4038   */\n      0x00\n        /* \"#utility.yul\":4026:4035   */\n      dup4\n        /* \"#utility.yul\":4022:4039   */\n      add\n        /* \"#utility.yul\":4015:4062   */\n      mstore\n        /* \"#utility.yul\":4079:4187   */\n      tag_121\n        /* \"#utility.yul\":4182:4186   */\n      dup2\n        /* \"#utility.yul\":4173:4179   */\n      dup5\n        /* \"#utility.yul\":4079:4187   */\n      tag_71\n      jump\t// in\n    tag_121:\n        /* \"#utility.yul\":4071:4187   */\n      swap1\n      pop\n        /* \"#utility.yul\":3821:4194   */\n      swap3\n      swap2\n      pop\n      pop\n      jump\t// out\n        /* \"#utility.yul\":4200:4318   */\n    tag_72:\n        /* \"#utility.yul\":4287:4311   */\n      tag_123\n        /* \"#utility.yul\":4305:4310   */\n      dup2\n        /* \"#utility.yul\":4287:4311   */\n      tag_67\n      jump\t// in\n    tag_123:\n        /* \"#utility.yul\":4282:4285   */\n      dup3\n        /* \"#utility.yul\":4275:4312   */\n      mstore\n        /* \"#utility.yul\":4200:4318   */\n      pop\n      pop\n      jump\t// out\n        /* \"#utility.yul\":4324:4546   */\n    tag_29:\n        /* \"#utility.yul\":4417:4421   */\n      0x00\n        /* \"#utility.yul\":4455:4457   */\n      0x20\n        /* \"#utility.yul\":4444:4453   */\n      dup3\n        /* \"#utility.yul\":4440:4458   */\n      add\n        /* \"#utility.yul\":4432:4458   */\n      swap1\n      pop\n        /* \"#utility.yul\":4468:4539   */\n      tag_125\n        /* \"#utility.yul\":4536:4537   */\n      0x00\n        /* \"#utility.yul\":4525:4534   */\n      dup4\n        /* \"#utility.yul\":4521:4538   */\n      add\n        /* \"#utility.yul\":4512:4518   */\n      dup5\n        /* \"#utility.yul\":4468:4539   */\n      tag_72\n      jump\t// in\n    tag_125:\n        /* \"#utility.yul\":4324:4546   */\n      swap3\n      swap2\n      pop\n      pop\n      jump\t// out\n        /* \"#utility.yul\":4552:4732   */\n    tag_73:\n        /* \"#utility.yul\":4600:4677   */\n      0x4e487b7100000000000000000000000000000000000000000000000000000000\n        /* \"#utility.yul\":4597:4598   */\n      0x00\n        /* \"#utility.yul\":4590:4678   */\n      mstore\n        /* \"#utility.yul\":4697:4701   */\n      0x11\n        /* \"#utility.yul\":4694:4695   */\n      0x04\n        /* \"#utility.yul\":4687:4702   */\n      mstore\n        /* \"#utility.yul\":4721:4725   */\n      0x24\n        /* \"#utility.yul\":4718:4719   */\n      0x00\n        /* \"#utility.yul\":4711:4726   */\n      revert\n        /* \"#utility.yul\":4738:4932   */\n    tag_38:\n        /* \"#utility.yul\":4778:4782   */\n      0x00\n        /* \"#utility.yul\":4798:4818   */\n      tag_128\n        /* \"#utility.yul\":4816:4817   */\n      dup3\n        /* \"#utility.yul\":4798:4818   */\n      tag_53\n      jump\t// in\n    tag_128:\n        /* \"#utility.yul\":4793:4818   */\n      swap2\n      pop\n        /* \"#utility.yul\":4832:4852   */\n      tag_129\n        /* \"#utility.yul\":4850:4851   */\n      dup4\n        /* \"#utility.yul\":4832:4852   */\n      tag_53\n      jump\t// in\n    tag_129:\n        /* \"#utility.yul\":4827:4852   */\n      swap3\n      pop\n        /* \"#utility.yul\":4876:4877   */\n      dup3\n        /* \"#utility.yul\":4873:4874   */\n      dup3\n        /* \"#utility.yul\":4869:4878   */\n      sub\n        /* \"#utility.yul\":4861:4878   */\n      swap1\n      pop\n        /* \"#utility.yul\":4900:4901   */\n      dup2\n        /* \"#utility.yul\":4894:4898   */\n      dup2\n        /* \"#utility.yul\":4891:4902   */\n      gt\n        /* \"#utility.yul\":4888:4925   */\n      iszero\n      tag_130\n      jumpi\n        /* \"#utility.yul\":4905:4923   */\n      tag_131\n      tag_73\n      jump\t// in\n    tag_131:\n        /* \"#utility.yul\":4888:4925   */\n    tag_130:\n        /* \"#utility.yul\":4738:4932   */\n      swap3\n      swap2\n      pop\n      pop\n      jump\t// out\n        /* \"#utility.yul\":4938:5129   */\n    tag_49:\n        /* \"#utility.yul\":4978:4981   */\n      0x00\n        /* \"#utility.yul\":4997:5017   */\n      tag_133\n        /* \"#utility.yul\":5015:5016   */\n      dup3\n        /* \"#utility.yul\":4997:5017   */\n      tag_53\n      jump\t// in\n    tag_133:\n        /* \"#utility.yul\":4992:5017   */\n      swap2\n      pop\n        /* \"#utility.yul\":5031:5051   */\n      tag_134\n        /* \"#utility.yul\":5049:5050   */\n      dup4\n        /* \"#utility.yul\":5031:5051   */\n      tag_53\n      jump\t// in\n    tag_134:\n        /* \"#utility.yul\":5026:5051   */\n      swap3\n      pop\n        /* \"#utility.yul\":5074:5075   */\n      dup3\n        /* \"#utility.yul\":5071:5072   */\n      dup3\n        /* \"#utility.yul\":5067:5076   */\n      add\n        /* \"#utility.yul\":5060:5076   */\n      swap1\n      pop\n        /* \"#utility.yul\":5095:5098   */\n      dup1\n        /* \"#utility.yul\":5092:5093   */\n      dup3\n        /* \"#utility.yul\":5089:5099   */\n      gt\n        /* \"#utility.yul\":5086:5122   */\n      iszero\n      tag_135\n      jumpi\n        /* \"#utility.yul\":5102:5120   */\n      tag_136\n      tag_73\n      jump\t// in\n    tag_136:\n        /* \"#utility.yul\":5086:5122   */\n    tag_135:\n        /* \"#utility.yul\":4938:5129   */\n      swap3\n      swap2\n      pop\n      pop\n      jump\t// out\n\n    auxdata: 0xa2646970667358221220ee2cf08d682d283d646b5c1a9a545733b12d077d285f7ce0bc8fb852effd88a764736f6c63430008160033\n}\n",
				"bytecode": {
					"linkReferences": {},
					"object": "608060405234801561000f575f80fd5b503360025f6101000a81548173ffffffffffffffffffffffffffffffffffffffff021916908373ffffffffffffffffffffffffffffffffffffffff1602179055505f8081905550610824806100635f395ff3fe608060405260043610610042575f3560e01c80636f965a63146100b2578063bf1482fa146100ce578063ed88c68e146100f8578063f3a0148914610102576100ae565b366100ae575f73ffffffffffffffffffffffffffffffffffffffff163373ffffffffffffffffffffffffffffffffffffffff167fddf252ad1be2c89b69c2b068fc378daa952ba7f163c4a11628f55a4df523b3ef346040516100a4919061056c565b60405180910390a3005b5f80fd5b6100cc60048036038101906100c7919061060d565b61012c565b005b3480156100d9575f80fd5b506100e2610347565b6040516100ef9190610713565b60405180910390f35b6101006103d2565b005b34801561010d575f80fd5b5061011661054c565b604051610123919061056c565b60405180910390f35b60025f9054906101000a900473ffffffffffffffffffffffffffffffffffffffff1673ffffffffffffffffffffffffffffffffffffffff163373ffffffffffffffffffffffffffffffffffffffff16146101bd57336040517ff499598a0000000000000000000000000000000000000000000000000000000081526004016101b49190610742565b60405180910390fd5b5f811161020157336040517f30e8fb430000000000000000000000000000000000000000000000000000000081526004016101f89190610742565b60405180910390fd5b5f5481111561024757336040517f30e8fb4300000000000000000000000000000000000000000000000000000000815260040161023e9190610742565b60405180910390fd5b5f8273ffffffffffffffffffffffffffffffffffffffff166108fc8390811502906040515f60405180830381858888f1935050505090508015610305578273ffffffffffffffffffffffffffffffffffffffff163373ffffffffffffffffffffffffffffffffffffffff167fddf252ad1be2c89b69c2b068fc378daa952ba7f163c4a11628f55a4df523b3ef846040516102e1919061056c565b60405180910390a3815f808282546102f99190610788565b92505081905550610342565b336040517f30e8fb430000000000000000000000000000000000000000000000000000000081526004016103399190610742565b60405180910390fd5b505050565b606060038054806020026020016040519081016040528092919081815260200182805480156103c857602002820191905f5260205f20905b815f9054906101000a900473ffffffffffffffffffffffffffffffffffffffff1673ffffffffffffffffffffffffffffffffffffffff168152602001906001019080831161037f575b5050505050905090565b5f3490505f811161041a57336040517f30e8fb430000000000000000000000000000000000000000000000000000000081526004016104119190610742565b60405180910390fd5b600333908060018154018082558091505060019003905f5260205f20015f9091909190916101000a81548173ffffffffffffffffffffffffffffffffffffffff021916908373ffffffffffffffffffffffffffffffffffffffff1602179055508060045f3373ffffffffffffffffffffffffffffffffffffffff1673ffffffffffffffffffffffffffffffffffffffff1681526020019081526020015f205f8282546104c691906107bb565b92505081905550805f808282546104dd91906107bb565b925050819055505f73ffffffffffffffffffffffffffffffffffffffff163373ffffffffffffffffffffffffffffffffffffffff167fddf252ad1be2c89b69c2b068fc378daa952ba7f163c4a11628f55a4df523b3ef83604051610541919061056c565b60405180910390a350565b5f8054905090565b5f819050919050565b61056681610554565b82525050565b5f60208201905061057f5f83018461055d565b92915050565b5f80fd5b5f73ffffffffffffffffffffffffffffffffffffffff82169050919050565b5f6105b282610589565b9050919050565b6105c2816105a8565b81146105cc575f80fd5b50565b5f813590506105dd816105b9565b92915050565b6105ec81610554565b81146105f6575f80fd5b50565b5f81359050610607816105e3565b92915050565b5f806040838503121561062357610622610585565b5b5f610630858286016105cf565b9250506020610641858286016105f9565b9150509250929050565b5f81519050919050565b5f82825260208201905092915050565b5f819050602082019050919050565b5f61067e82610589565b9050919050565b61068e81610674565b82525050565b5f61069f8383610685565b60208301905092915050565b5f602082019050919050565b5f6106c18261064b565b6106cb8185610655565b93506106d683610665565b805f5b838110156107065781516106ed8882610694565b97506106f8836106ab565b9250506001810190506106d9565b5085935050505092915050565b5f6020820190508181035f83015261072b81846106b7565b905092915050565b61073c81610674565b82525050565b5f6020820190506107555f830184610733565b92915050565b7f4e487b71000000000000000000000000000000000000000000000000000000005f52601160045260245ffd5b5f61079282610554565b915061079d83610554565b92508282039050818111156107b5576107b461075b565b5b92915050565b5f6107c582610554565b91506107d083610554565b92508282019050808211156107e8576107e761075b565b5b9291505056fea2646970667358221220ee2cf08d682d283d646b5c1a9a545733b12d077d285f7ce0bc8fb852effd88a764736f6c63430008160033",
					"opcodes": "PUSH1 0x80 PUSH1 0x40 MSTORE CALLVALUE DUP1 ISZERO PUSH2 0xF JUMPI PUSH0 DUP1 REVERT JUMPDEST POP CALLER PUSH1 0x2 PUSH0 PUSH2 0x100 EXP DUP2 SLOAD DUP2 PUSH20 0xFFFFFFFFFFFFFFFFFFFFFFFFFFFFFFFFFFFFFFFF MUL NOT AND SWAP1 DUP4 PUSH20 0xFFFFFFFFFFFFFFFFFFFFFFFFFFFFFFFFFFFFFFFF AND MUL OR SWAP1 SSTORE POP PUSH0 DUP1 DUP2 SWAP1 SSTORE POP PUSH2 0x824 DUP1 PUSH2 0x63 PUSH0 CODECOPY PUSH0 RETURN INVALID PUSH1 0x80 PUSH1 0x40 MSTORE PUSH1 0x4 CALLDATASIZE LT PUSH2 0x42 JUMPI PUSH0 CALLDATALOAD PUSH1 0xE0 SHR DUP1 PUSH4 0x6F965A63 EQ PUSH2 0xB2 JUMPI DUP1 PUSH4 0xBF1482FA EQ PUSH2 0xCE JUMPI DUP1 PUSH4 0xED88C68E EQ PUSH2 0xF8 JUMPI DUP1 PUSH4 0xF3A01489 EQ PUSH2 0x102 JUMPI PUSH2 0xAE JUMP JUMPDEST CALLDATASIZE PUSH2 0xAE JUMPI PUSH0 PUSH20 0xFFFFFFFFFFFFFFFFFFFFFFFFFFFFFFFFFFFFFFFF AND CALLER PUSH20 0xFFFFFFFFFFFFFFFFFFFFFFFFFFFFFFFFFFFFFFFF AND PUSH32 0xDDF252AD1BE2C89B69C2B068FC378DAA952BA7F163C4A11628F55A4DF523B3EF CALLVALUE PUSH1 0x40 MLOAD PUSH2 0xA4 SWAP2 SWAP1 PUSH2 0x56C JUMP JUMPDEST PUSH1 0x40 MLOAD DUP1 SWAP2 SUB SWAP1 LOG3 STOP JUMPDEST PUSH0 DUP1 REVERT JUMPDEST PUSH2 0xCC PUSH1 0x4 DUP1 CALLDATASIZE SUB DUP2 ADD SWAP1 PUSH2 0xC7 SWAP2 SWAP1 PUSH2 0x60D JUMP JUMPDEST PUSH2 0x12C JUMP JUMPDEST STOP JUMPDEST CALLVALUE DUP1 ISZERO PUSH2 0xD9 JUMPI PUSH0 DUP1 REVERT JUMPDEST POP PUSH2 0xE2 PUSH2 0x347 JUMP JUMPDEST PUSH1 0x40 MLOAD PUSH2 0xEF SWAP2 SWAP1 PUSH2 0x713 JUMP JUMPDEST PUSH1 0x40 MLOAD DUP1 SWAP2 SUB SWAP1 RETURN JUMPDEST PUSH2 0x100 PUSH2 0x3D2 JUMP JUMPDEST STOP JUMPDEST CALLVALUE DUP1 ISZERO PUSH2 0x10D JUMPI PUSH0 DUP1 REVERT JUMPDEST POP PUSH2 0x116 PUSH2 0x54C JUMP JUMPDEST PUSH1 0x40 MLOAD PUSH2 0x123 SWAP2 SWAP1 PUSH2 0x56C JUMP JUMPDEST PUSH1 0x40 MLOAD DUP1 SWAP2 SUB SWAP1 RETURN JUMPDEST PUSH1 0x2 PUSH0 SWAP1 SLOAD SWAP1 PUSH2 0x100 EXP SWAP1 DIV PUSH20 0xFFFFFFFFFFFFFFFFFFFFFFFFFFFFFFFFFFFFFFFF AND PUSH20 0xFFFFFFFFFFFFFFFFFFFFFFFFFFFFFFFFFFFFFFFF AND CALLER PUSH20 0xFFFFFFFFFFFFFFFFFFFFFFFFFFFFFFFFFFFFFFFF AND EQ PUSH2 0x1BD JUMPI CALLER PUSH1 0x40 MLOAD PUSH32 0xF499598A00000000000000000000000000000000000000000000000000000000 DUP2 MSTORE PUSH1 0x4 ADD PUSH2 0x1B4 SWAP2 SWAP1 PUSH2 0x742 JUMP JUMPDEST PUSH1 0x40 MLOAD DUP1 SWAP2 SUB SWAP1 REVERT JUMPDEST PUSH0 DUP2 GT PUSH2 0x201 JUMPI CALLER PUSH1 0x40 MLOAD PUSH32 0x30E8FB4300000000000000000000000000000000000000000000000000000000 DUP2 MSTORE PUSH1 0x4 ADD PUSH2 0x1F8 SWAP2 SWAP1 PUSH2 0x742 JUMP JUMPDEST PUSH1 0x40 MLOAD DUP1 SWAP2 SUB SWAP1 REVERT JUMPDEST PUSH0 SLOAD DUP2 GT ISZERO PUSH2 0x247 JUMPI CALLER PUSH1 0x40 MLOAD PUSH32 0x30E8FB4300000000000000000000000000000000000000000000000000000000 DUP2 MSTORE PUSH1 0x4 ADD PUSH2 0x23E SWAP2 SWAP1 PUSH2 0x742 JUMP JUMPDEST PUSH1 0x40 MLOAD DUP1 SWAP2 SUB SWAP1 REVERT JUMPDEST PUSH0 DUP3 PUSH20 0xFFFFFFFFFFFFFFFFFFFFFFFFFFFFFFFFFFFFFFFF AND PUSH2 0x8FC DUP4 SWAP1 DUP2 ISZERO MUL SWAP1 PUSH1 0x40 MLOAD PUSH0 PUSH1 0x40 MLOAD DUP1 DUP4 SUB DUP2 DUP6 DUP9 DUP9 CALL SWAP4 POP POP POP POP SWAP1 POP DUP1 ISZERO PUSH2 0x305 JUMPI DUP3 PUSH20 0xFFFFFFFFFFFFFFFFFFFFFFFFFFFFFFFFFFFFFFFF AND CALLER PUSH20 0xFFFFFFFFFFFFFFFFFFFFFFFFFFFFFFFFFFFFFFFF AND PUSH32 0xDDF252AD1BE2C89B69C2B068FC378DAA952BA7F163C4A11628F55A4DF523B3EF DUP5 PUSH1 0x40 MLOAD PUSH2 0x2E1 SWAP2 SWAP1 PUSH2 0x56C JUMP JUMPDEST PUSH1 0x40 MLOAD DUP1 SWAP2 SUB SWAP1 LOG3 DUP2 PUSH0 DUP1 DUP3 DUP3 SLOAD PUSH2 0x2F9 SWAP2 SWAP1 PUSH2 0x788 JUMP JUMPDEST SWAP3 POP POP DUP2 SWAP1 SSTORE POP PUSH2 0x342 JUMP JUMPDEST CALLER PUSH1 0x40 MLOAD PUSH32 0x30E8FB4300000000000000000000000000000000000000000000000000000000 DUP2 MSTORE PUSH1 0x4 ADD PUSH2 0x339 SWAP2 SWAP1 PUSH2 0x742 JUMP JUMPDEST PUSH1 0x40 MLOAD DUP1 SWAP2 SUB SWAP1 REVERT JUMPDEST POP POP POP JUMP JUMPDEST PUSH1 0x60 PUSH1 0x3 DUP1 SLOAD DUP1 PUSH1 0x20 MUL PUSH1 0x20 ADD PUSH1 0x40 MLOAD SWAP1 DUP2 ADD PUSH1 0x40 MSTORE DUP1 SWAP3 SWAP2 SWAP1 DUP2 DUP2 MSTORE PUSH1 0x20 ADD DUP3 DUP1 SLOAD DUP1 ISZERO PUSH2 0x3C8 JUMPI PUSH1 0x20 MUL DUP3 ADD SWAP2 SWAP1 PUSH0 MSTORE PUSH1 0x20 PUSH0 KECCAK256 SWAP1 JUMPDEST DUP2 PUSH0 SWAP1 SLOAD SWAP1 PUSH2 0x100 EXP SWAP1 DIV PUSH20 0xFFFFFFFFFFFFFFFFFFFFFFFFFFFFFFFFFFFFFFFF AND PUSH20 0xFFFFFFFFFFFFFFFFFFFFFFFFFFFFFFFFFFFFFFFF AND DUP2 MSTORE PUSH1 0x20 ADD SWAP1 PUSH1 0x1 ADD SWAP1 DUP1 DUP4 GT PUSH2 0x37F JUMPI JUMPDEST POP POP POP POP POP SWAP1 POP SWAP1 JUMP JUMPDEST PUSH0 CALLVALUE SWAP1 POP PUSH0 DUP2 GT PUSH2 0x41A JUMPI CALLER PUSH1 0x40 MLOAD PUSH32 0x30E8FB4300000000000000000000000000000000000000000000000000000000 DUP2 MSTORE PUSH1 0x4 ADD PUSH2 0x411 SWAP2 SWAP1 PUSH2 0x742 JUMP JUMPDEST PUSH1 0x40 MLOAD DUP1 SWAP2 SUB SWAP1 REVERT JUMPDEST PUSH1 0x3 CALLER SWAP1 DUP1 PUSH1 0x1 DUP2 SLOAD ADD DUP1 DUP3 SSTORE DUP1 SWAP2 POP POP PUSH1 0x1 SWAP1 SUB SWAP1 PUSH0 MSTORE PUSH1 0x20 PUSH0 KECCAK256 ADD PUSH0 SWAP1 SWAP2 SWAP1 SWAP2 SWAP1 SWAP2 PUSH2 0x100 EXP DUP2 SLOAD DUP2 PUSH20 0xFFFFFFFFFFFFFFFFFFFFFFFFFFFFFFFFFFFFFFFF MUL NOT AND SWAP1 DUP4 PUSH20 0xFFFFFFFFFFFFFFFFFFFFFFFFFFFFFFFFFFFFFFFF AND MUL OR SWAP1 SSTORE POP DUP1 PUSH1 0x4 PUSH0 CALLER PUSH20 0xFFFFFFFFFFFFFFFFFFFFFFFFFFFFFFFFFFFFFFFF AND PUSH20 0xFFFFFFFFFFFFFFFFFFFFFFFFFFFFFFFFFFFFFFFF AND DUP2 MSTORE PUSH1 0x20 ADD SWAP1 DUP2 MSTORE PUSH1 0x20 ADD PUSH0 KECCAK256 PUSH0 DUP3 DUP3 SLOAD PUSH2 0x4C6 SWAP2 SWAP1 PUSH2 0x7BB JUMP JUMPDEST SWAP3 POP POP DUP2 SWAP1 SSTORE POP DUP1 PUSH0 DUP1 DUP3 DUP3 SLOAD PUSH2 0x4DD SWAP2 SWAP1 PUSH2 0x7BB JUMP JUMPDEST SWAP3 POP POP DUP2 SWAP1 SSTORE POP PUSH0 PUSH20 0xFFFFFFFFFFFFFFFFFFFFFFFFFFFFFFFFFFFFFFFF AND CALLER PUSH20 0xFFFFFFFFFFFFFFFFFFFFFFFFFFFFFFFFFFFFFFFF AND PUSH32 0xDDF252AD1BE2C89B69C2B068FC378DAA952BA7F163C4A11628F55A4DF523B3EF DUP4 PUSH1 0x40 MLOAD PUSH2 0x541 SWAP2 SWAP1 PUSH2 0x56C JUMP JUMPDEST PUSH1 0x40 MLOAD DUP1 SWAP2 SUB SWAP1 LOG3 POP JUMP JUMPDEST PUSH0 DUP1 SLOAD SWAP1 POP SWAP1 JUMP JUMPDEST PUSH0 DUP2 SWAP1 POP SWAP2 SWAP1 POP JUMP JUMPDEST PUSH2 0x566 DUP2 PUSH2 0x554 JUMP JUMPDEST DUP3 MSTORE POP POP JUMP JUMPDEST PUSH0 PUSH1 0x20 DUP3 ADD SWAP1 POP PUSH2 0x57F PUSH0 DUP4 ADD DUP5 PUSH2 0x55D JUMP JUMPDEST SWAP3 SWAP2 POP POP JUMP JUMPDEST PUSH0 DUP1 REVERT JUMPDEST PUSH0 PUSH20 0xFFFFFFFFFFFFFFFFFFFFFFFFFFFFFFFFFFFFFFFF DUP3 AND SWAP1 POP SWAP2 SWAP1 POP JUMP JUMPDEST PUSH0 PUSH2 0x5B2 DUP3 PUSH2 0x589 JUMP JUMPDEST SWAP1 POP SWAP2 SWAP1 POP JUMP JUMPDEST PUSH2 0x5C2 DUP2 PUSH2 0x5A8 JUMP JUMPDEST DUP2 EQ PUSH2 0x5CC JUMPI PUSH0 DUP1 REVERT JUMPDEST POP JUMP JUMPDEST PUSH0 DUP2 CALLDATALOAD SWAP1 POP PUSH2 0x5DD DUP2 PUSH2 0x5B9 JUMP JUMPDEST SWAP3 SWAP2 POP POP JUMP JUMPDEST PUSH2 0x5EC DUP2 PUSH2 0x554 JUMP JUMPDEST DUP2 EQ PUSH2 0x5F6 JUMPI PUSH0 DUP1 REVERT JUMPDEST POP JUMP JUMPDEST PUSH0 DUP2 CALLDATALOAD SWAP1 POP PUSH2 0x607 DUP2 PUSH2 0x5E3 JUMP JUMPDEST SWAP3 SWAP2 POP POP JUMP JUMPDEST PUSH0 DUP1 PUSH1 0x40 DUP4 DUP6 SUB SLT ISZERO PUSH2 0x623 JUMPI PUSH2 0x622 PUSH2 0x585 JUMP JUMPDEST JUMPDEST PUSH0 PUSH2 0x630 DUP6 DUP3 DUP7 ADD PUSH2 0x5CF JUMP JUMPDEST SWAP3 POP POP PUSH1 0x20 PUSH2 0x641 DUP6 DUP3 DUP7 ADD PUSH2 0x5F9 JUMP JUMPDEST SWAP2 POP POP SWAP3 POP SWAP3 SWAP1 POP JUMP JUMPDEST PUSH0 DUP2 MLOAD SWAP1 POP SWAP2 SWAP1 POP JUMP JUMPDEST PUSH0 DUP3 DUP3 MSTORE PUSH1 0x20 DUP3 ADD SWAP1 POP SWAP3 SWAP2 POP POP JUMP JUMPDEST PUSH0 DUP2 SWAP1 POP PUSH1 0x20 DUP3 ADD SWAP1 POP SWAP2 SWAP1 POP JUMP JUMPDEST PUSH0 PUSH2 0x67E DUP3 PUSH2 0x589 JUMP JUMPDEST SWAP1 POP SWAP2 SWAP1 POP JUMP JUMPDEST PUSH2 0x68E DUP2 PUSH2 0x674 JUMP JUMPDEST DUP3 MSTORE POP POP JUMP JUMPDEST PUSH0 PUSH2 0x69F DUP4 DUP4 PUSH2 0x685 JUMP JUMPDEST PUSH1 0x20 DUP4 ADD SWAP1 POP SWAP3 SWAP2 POP POP JUMP JUMPDEST PUSH0 PUSH1 0x20 DUP3 ADD SWAP1 POP SWAP2 SWAP1 POP JUMP JUMPDEST PUSH0 PUSH2 0x6C1 DUP3 PUSH2 0x64B JUMP JUMPDEST PUSH2 0x6CB DUP2 DUP6 PUSH2 0x655 JUMP JUMPDEST SWAP4 POP PUSH2 0x6D6 DUP4 PUSH2 0x665 JUMP JUMPDEST DUP1 PUSH0 JUMPDEST DUP4 DUP2 LT ISZERO PUSH2 0x706 JUMPI DUP2 MLOAD PUSH2 0x6ED DUP9 DUP3 PUSH2 0x694 JUMP JUMPDEST SWAP8 POP PUSH2 0x6F8 DUP4 PUSH2 0x6AB JUMP JUMPDEST SWAP3 POP POP PUSH1 0x1 DUP2 ADD SWAP1 POP PUSH2 0x6D9 JUMP JUMPDEST POP DUP6 SWAP4 POP POP POP POP SWAP3 SWAP2 POP POP JUMP JUMPDEST PUSH0 PUSH1 0x20 DUP3 ADD SWAP1 POP DUP2 DUP2 SUB PUSH0 DUP4 ADD MSTORE PUSH2 0x72B DUP2 DUP5 PUSH2 0x6B7 JUMP JUMPDEST SWAP1 POP SWAP3 SWAP2 POP POP JUMP JUMPDEST PUSH2 0x73C DUP2 PUSH2 0x674 JUMP JUMPDEST DUP3 MSTORE POP POP JUMP JUMPDEST PUSH0 PUSH1 0x20 DUP3 ADD SWAP1 POP PUSH2 0x755 PUSH0 DUP4 ADD DUP5 PUSH2 0x733 JUMP JUMPDEST SWAP3 SWAP2 POP POP JUMP JUMPDEST PUSH32 0x4E487B7100000000000000000000000000000000000000000000000000000000 PUSH0 MSTORE PUSH1 0x11 PUSH1 0x4 MSTORE PUSH1 0x24 PUSH0 REVERT JUMPDEST PUSH0 PUSH2 0x792 DUP3 PUSH2 0x554 JUMP JUMPDEST SWAP2 POP PUSH2 0x79D DUP4 PUSH2 0x554 JUMP JUMPDEST SWAP3 POP DUP3 DUP3 SUB SWAP1 POP DUP2 DUP2 GT ISZERO PUSH2 0x7B5 JUMPI PUSH2 0x7B4 PUSH2 0x75B JUMP JUMPDEST JUMPDEST SWAP3 SWAP2 POP POP JUMP JUMPDEST PUSH0 PUSH2 0x7C5 DUP3 PUSH2 0x554 JUMP JUMPDEST SWAP2 POP PUSH2 0x7D0 DUP4 PUSH2 0x554 JUMP JUMPDEST SWAP3 POP DUP3 DUP3 ADD SWAP1 POP DUP1 DUP3 GT ISZERO PUSH2 0x7E8 JUMPI PUSH2 0x7E7 PUSH2 0x75B JUMP JUMPDEST JUMPDEST SWAP3 SWAP2 POP POP JUMP INVALID LOG2 PUSH5 0x6970667358 0x22 SLT KECCAK256 0xEE 0x2C CREATE DUP14 PUSH9 0x2D283D646B5C1A9A54 JUMPI CALLER 0xB1 0x2D SMOD PUSH30 0x285F7CE0BC8FB852EFFD88A764736F6C6343000816003300000000000000 "
				},
				"gasEstimates": {
					"creation": {
						"codeDepositCost": "416800",
						"executionCost": "29731",
						"totalCost": "446531"
					},
					"external": {
						"donate()": "infinite",
						"getDonators()": "infinite",
						"getSumOfDonations()": "2476",
						"sendHelp(address,uint256)": "infinite"
					}
				},
				"methodIdentifiers": {
					"donate()": "ed88c68e",
					"getDonators()": "bf1482fa",
					"getSumOfDonations()": "f3a01489",
					"sendHelp(address,uint256)": "6f965a63"
				}
			},
			"storageLayout": {
				"storage": [
					{
						"astId": 3,
						"contract": "contracts/Donation.sol:Donation",
						"label": "totalDonationsAmount",
						"offset": 0,
						"slot": "0",
						"type": "t_uint256"
					},
					{
						"astId": 5,
						"contract": "contracts/Donation.sol:Donation",
						"label": "_contract",
						"offset": 0,
						"slot": "1",
						"type": "t_address"
					},
					{
						"astId": 7,
						"contract": "contracts/Donation.sol:Donation",
						"label": "owner",
						"offset": 0,
						"slot": "2",
						"type": "t_address"
					},
					{
						"astId": 10,
						"contract": "contracts/Donation.sol:Donation",
						"label": "charityAddresses",
						"offset": 0,
						"slot": "3",
						"type": "t_array(t_address)dyn_storage"
					},
					{
						"astId": 14,
						"contract": "contracts/Donation.sol:Donation",
						"label": "_donations",
						"offset": 0,
						"slot": "4",
						"type": "t_mapping(t_address,t_uint256)"
					}
				],
				"types": {
					"t_address": {
						"encoding": "inplace",
						"label": "address",
						"numberOfBytes": "20"
					},
					"t_array(t_address)dyn_storage": {
						"base": "t_address",
						"encoding": "dynamic_array",
						"label": "address[]",
						"numberOfBytes": "32"
					},
					"t_mapping(t_address,t_uint256)": {
						"encoding": "mapping",
						"key": "t_address",
						"label": "mapping(address => uint256)",
						"numberOfBytes": "32",
						"value": "t_uint256"
					},
					"t_uint256": {
						"encoding": "inplace",
						"label": "uint256",
						"numberOfBytes": "32"
					}
				}
			},
			"userdoc": {
				"kind": "user",
				"methods": {},
				"version": 1
			}
		}
	}
}